{
  "_format": "hh-sol-artifact-1",
  "contractName": "CipheredMicroloanBazaar",
  "sourceName": "contracts/CipheredMicroloanBazaar.sol",
  "abi": [
    {
      "inputs": [],
      "stateMutability": "nonpayable",
      "type": "constructor"
    },
    {
      "anonymous": false,
      "inputs": [
        {
          "indexed": true,
          "internalType": "uint256",
          "name": "loanId",
          "type": "uint256"
        },
        {
          "indexed": false,
          "internalType": "uint32",
          "name": "creditScore",
          "type": "uint32"
        },
        {
          "indexed": false,
          "internalType": "uint8",
          "name": "riskTier",
          "type": "uint8"
        },
        {
          "indexed": false,
          "internalType": "uint64",
          "name": "approvedAmount",
          "type": "uint64"
        },
        {
          "indexed": false,
          "internalType": "uint32",
          "name": "interestRate",
          "type": "uint32"
        }
      ],
      "name": "CreditEvaluationCompleted",
      "type": "event"
    },
    {
      "anonymous": false,
      "inputs": [
        {
          "indexed": true,
          "internalType": "uint256",
          "name": "loanId",
          "type": "uint256"
        },
        {
          "indexed": false,
          "internalType": "uint256",
          "name": "requestId",
          "type": "uint256"
        },
        {
          "indexed": false,
          "internalType": "address",
          "name": "evaluatedBy",
          "type": "address"
        }
      ],
      "name": "CreditEvaluationRequested",
      "type": "event"
    },
    {
      "anonymous": false,
      "inputs": [
        {
          "indexed": true,
          "internalType": "uint256",
          "name": "loanId",
          "type": "uint256"
        },
        {
          "indexed": true,
          "internalType": "address",
          "name": "lender",
          "type": "address"
        },
        {
          "indexed": false,
          "internalType": "uint64",
          "name": "amount",
          "type": "uint64"
        }
      ],
      "name": "InterestDistributed",
      "type": "event"
    },
    {
      "anonymous": false,
      "inputs": [
        {
          "indexed": true,
          "internalType": "uint256",
          "name": "loanId",
          "type": "uint256"
        },
        {
          "indexed": true,
          "internalType": "address",
          "name": "borrower",
          "type": "address"
        },
        {
          "indexed": false,
          "internalType": "enum CipheredMicroloanBazaar.LoanPurpose",
          "name": "purpose",
          "type": "uint8"
        },
        {
          "indexed": false,
          "internalType": "uint256",
          "name": "timestamp",
          "type": "uint256"
        }
      ],
      "name": "LoanApplicationSubmitted",
      "type": "event"
    },
    {
      "anonymous": false,
      "inputs": [
        {
          "indexed": true,
          "internalType": "uint256",
          "name": "loanId",
          "type": "uint256"
        },
        {
          "indexed": false,
          "internalType": "uint256",
          "name": "timestamp",
          "type": "uint256"
        }
      ],
      "name": "LoanCompleted",
      "type": "event"
    },
    {
      "anonymous": false,
      "inputs": [
        {
          "indexed": true,
          "internalType": "uint256",
          "name": "loanId",
          "type": "uint256"
        },
        {
          "indexed": false,
          "internalType": "uint256",
          "name": "timestamp",
          "type": "uint256"
        }
      ],
      "name": "LoanDefaulted",
      "type": "event"
    },
    {
      "anonymous": false,
      "inputs": [
        {
          "indexed": true,
          "internalType": "uint256",
          "name": "loanId",
          "type": "uint256"
        },
        {
          "indexed": false,
          "internalType": "uint256",
          "name": "timestamp",
          "type": "uint256"
        }
      ],
      "name": "LoanDisbursed",
      "type": "event"
    },
    {
      "anonymous": false,
      "inputs": [
        {
          "indexed": true,
          "internalType": "uint256",
          "name": "loanId",
          "type": "uint256"
        },
        {
          "indexed": true,
          "internalType": "address",
          "name": "lender",
          "type": "address"
        },
        {
          "indexed": false,
          "internalType": "uint256",
          "name": "timestamp",
          "type": "uint256"
        }
      ],
      "name": "LoanFunded",
      "type": "event"
    },
    {
      "anonymous": false,
      "inputs": [
        {
          "indexed": true,
          "internalType": "uint256",
          "name": "loanId",
          "type": "uint256"
        },
        {
          "indexed": false,
          "internalType": "enum CipheredMicroloanBazaar.LoanStatus",
          "name": "oldStatus",
          "type": "uint8"
        },
        {
          "indexed": false,
          "internalType": "enum CipheredMicroloanBazaar.LoanStatus",
          "name": "newStatus",
          "type": "uint8"
        },
        {
          "indexed": false,
          "internalType": "uint256",
          "name": "timestamp",
          "type": "uint256"
        }
      ],
      "name": "LoanStatusChanged",
      "type": "event"
    },
    {
      "anonymous": false,
      "inputs": [
        {
          "indexed": true,
          "internalType": "uint256",
          "name": "loanId",
          "type": "uint256"
        },
        {
          "indexed": true,
          "internalType": "address",
          "name": "borrower",
          "type": "address"
        },
        {
          "indexed": false,
          "internalType": "uint32",
          "name": "installmentNumber",
          "type": "uint32"
        },
        {
          "indexed": false,
          "internalType": "uint256",
          "name": "timestamp",
          "type": "uint256"
        }
      ],
      "name": "PaymentMade",
      "type": "event"
    },
    {
      "anonymous": false,
      "inputs": [
        {
          "indexed": true,
          "internalType": "address",
          "name": "account",
          "type": "address"
        },
        {
          "indexed": false,
          "internalType": "string",
          "name": "role",
          "type": "string"
        }
      ],
      "name": "RoleGranted",
      "type": "event"
    },
    {
      "anonymous": false,
      "inputs": [
        {
          "indexed": true,
          "internalType": "address",
          "name": "account",
          "type": "address"
        },
        {
          "indexed": false,
          "internalType": "string",
          "name": "role",
          "type": "string"
        }
      ],
      "name": "RoleRevoked",
      "type": "event"
    },
    {
      "inputs": [
        {
          "internalType": "address",
          "name": "",
          "type": "address"
        }
      ],
      "name": "borrowers",
      "outputs": [
        {
          "internalType": "address",
          "name": "borrower",
          "type": "address"
        },
        {
          "internalType": "euint32",
          "name": "totalLoansCipher",
          "type": "bytes32"
        },
        {
          "internalType": "euint32",
          "name": "activeLoansCipher",
          "type": "bytes32"
        },
        {
          "internalType": "euint32",
          "name": "completedLoansCipher",
          "type": "bytes32"
        },
        {
          "internalType": "euint32",
          "name": "defaultedLoansCipher",
          "type": "bytes32"
        },
        {
          "internalType": "euint64",
          "name": "totalBorrowedCipher",
          "type": "bytes32"
        },
        {
          "internalType": "euint64",
          "name": "totalRepaidCipher",
          "type": "bytes32"
        },
        {
          "internalType": "euint64",
          "name": "outstandingBalanceCipher",
          "type": "bytes32"
        },
        {
          "internalType": "euint16",
          "name": "averageCreditScoreCipher",
          "type": "bytes32"
        },
        {
          "internalType": "euint8",
          "name": "reputationScoreCipher",
          "type": "bytes32"
        },
        {
          "internalType": "uint256",
          "name": "firstLoanAt",
          "type": "uint256"
        },
        {
          "internalType": "uint256",
          "name": "lastLoanAt",
          "type": "uint256"
        },
        {
          "internalType": "uint32",
          "name": "loanCount",
          "type": "uint32"
        }
      ],
      "stateMutability": "view",
      "type": "function"
    },
    {
      "inputs": [
        {
          "internalType": "address",
          "name": "",
          "type": "address"
        }
      ],
      "name": "collectionAgents",
      "outputs": [
        {
          "internalType": "bool",
          "name": "",
          "type": "bool"
        }
      ],
      "stateMutability": "view",
      "type": "function"
    },
    {
      "inputs": [
        {
          "internalType": "uint256",
          "name": "loanId",
          "type": "uint256"
        },
        {
          "internalType": "uint32",
          "name": "creditScore",
          "type": "uint32"
        },
        {
          "internalType": "uint8",
          "name": "riskTier",
          "type": "uint8"
        },
        {
          "internalType": "uint64",
          "name": "approvedAmount",
          "type": "uint64"
        },
        {
          "internalType": "uint32",
          "name": "interestRate",
          "type": "uint32"
        },
        {
          "internalType": "uint32",
          "name": "approvedTerm",
          "type": "uint32"
        },
        {
          "internalType": "uint64",
          "name": "totalRepayment",
          "type": "uint64"
        }
      ],
      "name": "completeCreditEvaluation",
      "outputs": [],
      "stateMutability": "nonpayable",
      "type": "function"
    },
    {
      "inputs": [
        {
          "internalType": "address",
          "name": "",
          "type": "address"
        }
      ],
      "name": "creditAnalysts",
      "outputs": [
        {
          "internalType": "bool",
          "name": "",
          "type": "bool"
        }
      ],
      "stateMutability": "view",
      "type": "function"
    },
    {
      "inputs": [
        {
          "internalType": "uint256",
          "name": "loanId",
          "type": "uint256"
        }
      ],
      "name": "disburseLoan",
      "outputs": [],
      "stateMutability": "nonpayable",
      "type": "function"
    },
    {
      "inputs": [
        {
          "internalType": "uint256",
          "name": "loanId",
          "type": "uint256"
        }
      ],
      "name": "distributeInterest",
      "outputs": [],
      "stateMutability": "nonpayable",
      "type": "function"
    },
    {
      "inputs": [
        {
          "internalType": "uint256",
          "name": "",
          "type": "uint256"
        }
      ],
      "name": "evaluations",
      "outputs": [
        {
          "internalType": "uint256",
          "name": "loanId",
          "type": "uint256"
        },
        {
          "internalType": "euint32",
          "name": "adjustedCreditScoreCipher",
          "type": "bytes32"
        },
        {
          "internalType": "euint8",
          "name": "riskTierCipher",
          "type": "bytes32"
        },
        {
          "internalType": "euint64",
          "name": "approvedAmountCipher",
          "type": "bytes32"
        },
        {
          "internalType": "euint32",
          "name": "interestRateCipher",
          "type": "bytes32"
        },
        {
          "internalType": "euint32",
          "name": "approvedTermCipher",
          "type": "bytes32"
        },
        {
          "internalType": "euint64",
          "name": "totalRepaymentCipher",
          "type": "bytes32"
        },
        {
          "internalType": "uint256",
          "name": "evaluatedAt",
          "type": "uint256"
        },
        {
          "internalType": "address",
          "name": "evaluatedBy",
          "type": "address"
        },
        {
          "internalType": "bool",
          "name": "isComplete",
          "type": "bool"
        },
        {
          "internalType": "uint32",
          "name": "decryptedCreditScore",
          "type": "uint32"
        },
        {
          "internalType": "uint8",
          "name": "decryptedRiskTier",
          "type": "uint8"
        },
        {
          "internalType": "uint64",
          "name": "decryptedApprovedAmount",
          "type": "uint64"
        },
        {
          "internalType": "uint32",
          "name": "decryptedInterestRate",
          "type": "uint32"
        },
        {
          "internalType": "uint32",
          "name": "decryptedApprovedTerm",
          "type": "uint32"
        },
        {
          "internalType": "uint64",
          "name": "decryptedTotalRepayment",
          "type": "uint64"
        },
        {
          "internalType": "bool",
          "name": "isDecrypted",
          "type": "bool"
        }
      ],
      "stateMutability": "view",
      "type": "function"
    },
    {
      "inputs": [
        {
          "internalType": "uint256",
          "name": "loanId",
          "type": "uint256"
        },
        {
          "internalType": "uint64",
          "name": "amount",
          "type": "uint64"
        }
      ],
      "name": "fundLoan",
      "outputs": [],
      "stateMutability": "payable",
      "type": "function"
    },
    {
      "inputs": [
        {
          "internalType": "address",
          "name": "borrower",
          "type": "address"
        }
      ],
      "name": "getBorrowerProfileInfo",
      "outputs": [
        {
          "internalType": "uint256",
          "name": "firstLoanAt",
          "type": "uint256"
        },
        {
          "internalType": "uint256",
          "name": "lastLoanAt",
          "type": "uint256"
        },
        {
          "internalType": "uint32",
          "name": "borrowerLoanCount",
          "type": "uint32"
        },
        {
          "internalType": "uint256[]",
          "name": "loanIds",
          "type": "uint256[]"
        }
      ],
      "stateMutability": "view",
      "type": "function"
    },
    {
      "inputs": [
        {
          "internalType": "uint256",
          "name": "loanId",
          "type": "uint256"
        }
      ],
      "name": "getEvaluationInfo",
      "outputs": [
        {
          "internalType": "uint32",
          "name": "creditScore",
          "type": "uint32"
        },
        {
          "internalType": "uint8",
          "name": "riskTier",
          "type": "uint8"
        },
        {
          "internalType": "uint64",
          "name": "approvedAmount",
          "type": "uint64"
        },
        {
          "internalType": "uint32",
          "name": "interestRate",
          "type": "uint32"
        },
        {
          "internalType": "bool",
          "name": "isDecrypted",
          "type": "bool"
        }
      ],
      "stateMutability": "view",
      "type": "function"
    },
    {
      "inputs": [
        {
          "internalType": "uint256",
          "name": "loanId",
          "type": "uint256"
        },
        {
          "internalType": "address",
          "name": "lender",
          "type": "address"
        }
      ],
      "name": "getLenderInterest",
      "outputs": [
        {
          "internalType": "uint64",
          "name": "",
          "type": "uint64"
        }
      ],
      "stateMutability": "view",
      "type": "function"
    },
    {
      "inputs": [
        {
          "internalType": "address",
          "name": "lender",
          "type": "address"
        }
      ],
      "name": "getLenderProfileInfo",
      "outputs": [
        {
          "internalType": "uint256",
          "name": "firstFundedAt",
          "type": "uint256"
        },
        {
          "internalType": "uint256",
          "name": "lastFundedAt",
          "type": "uint256"
        },
        {
          "internalType": "uint32",
          "name": "fundedCount",
          "type": "uint32"
        },
        {
          "internalType": "uint256[]",
          "name": "fundedLoanIds",
          "type": "uint256[]"
        }
      ],
      "stateMutability": "view",
      "type": "function"
    },
    {
      "inputs": [
        {
          "internalType": "uint256",
          "name": "loanId",
          "type": "uint256"
        }
      ],
      "name": "getLoanInfo",
      "outputs": [
        {
          "internalType": "address",
          "name": "borrower",
          "type": "address"
        },
        {
          "internalType": "enum CipheredMicroloanBazaar.LoanStatus",
          "name": "status",
          "type": "uint8"
        },
        {
          "internalType": "enum CipheredMicroloanBazaar.LoanPurpose",
          "name": "purpose",
          "type": "uint8"
        },
        {
          "internalType": "uint256",
          "name": "submittedAt",
          "type": "uint256"
        },
        {
          "internalType": "uint256",
          "name": "approvedAt",
          "type": "uint256"
        },
        {
          "internalType": "uint256",
          "name": "disbursedAt",
          "type": "uint256"
        },
        {
          "internalType": "bool",
          "name": "isActive",
          "type": "bool"
        },
        {
          "internalType": "uint16",
          "name": "statusChangeCount",
          "type": "uint16"
        }
      ],
      "stateMutability": "view",
      "type": "function"
    },
    {
      "inputs": [],
      "name": "getMarketplaceStats",
      "outputs": [
        {
          "internalType": "uint256",
          "name": "totalLoans",
          "type": "uint256"
        },
        {
          "internalType": "uint256",
          "name": "issued",
          "type": "uint256"
        },
        {
          "internalType": "uint256",
          "name": "completed",
          "type": "uint256"
        },
        {
          "internalType": "uint256",
          "name": "defaulted",
          "type": "uint256"
        }
      ],
      "stateMutability": "view",
      "type": "function"
    },
    {
      "inputs": [
        {
          "internalType": "uint256",
          "name": "loanId",
          "type": "uint256"
        }
      ],
      "name": "getPaymentHistory",
      "outputs": [
        {
          "internalType": "uint256",
          "name": "",
          "type": "uint256"
        }
      ],
      "stateMutability": "view",
      "type": "function"
    },
    {
      "inputs": [
        {
          "internalType": "uint256",
          "name": "loanId",
          "type": "uint256"
        },
        {
          "internalType": "uint256",
          "name": "index",
          "type": "uint256"
        }
      ],
      "name": "getPaymentRecord",
      "outputs": [
        {
          "internalType": "uint256",
          "name": "paidAt",
          "type": "uint256"
        },
        {
          "internalType": "bool",
          "name": "isLate",
          "type": "bool"
        },
        {
          "internalType": "uint32",
          "name": "daysLate",
          "type": "uint32"
        }
      ],
      "stateMutability": "view",
      "type": "function"
    },
    {
      "inputs": [
        {
          "internalType": "uint256",
          "name": "loanId",
          "type": "uint256"
        }
      ],
      "name": "getPoolInfo",
      "outputs": [
        {
          "internalType": "uint256",
          "name": "lenderCount",
          "type": "uint256"
        },
        {
          "internalType": "uint64",
          "name": "totalPooled",
          "type": "uint64"
        },
        {
          "internalType": "uint64",
          "name": "totalInterest",
          "type": "uint64"
        },
        {
          "internalType": "bool",
          "name": "isFunded",
          "type": "bool"
        },
        {
          "internalType": "bool",
          "name": "isDistributed",
          "type": "bool"
        }
      ],
      "stateMutability": "view",
      "type": "function"
    },
    {
      "inputs": [
        {
          "internalType": "uint256",
          "name": "loanId",
          "type": "uint256"
        }
      ],
      "name": "getScheduleInfo",
      "outputs": [
        {
          "internalType": "uint256",
          "name": "nextPaymentDue",
          "type": "uint256"
        },
        {
          "internalType": "uint256",
          "name": "lastPaymentAt",
          "type": "uint256"
        },
        {
          "internalType": "bool",
          "name": "isComplete",
          "type": "bool"
        },
        {
          "internalType": "bool",
          "name": "isDefaulted",
          "type": "bool"
        }
      ],
      "stateMutability": "view",
      "type": "function"
    },
    {
      "inputs": [
        {
          "internalType": "address",
          "name": "account",
          "type": "address"
        }
      ],
      "name": "grantCollectionAgent",
      "outputs": [],
      "stateMutability": "nonpayable",
      "type": "function"
    },
    {
      "inputs": [
        {
          "internalType": "address",
          "name": "account",
          "type": "address"
        }
      ],
      "name": "grantCreditAnalyst",
      "outputs": [],
      "stateMutability": "nonpayable",
      "type": "function"
    },
    {
      "inputs": [
        {
          "internalType": "address",
          "name": "account",
          "type": "address"
        }
      ],
      "name": "grantLoanOfficer",
      "outputs": [],
      "stateMutability": "nonpayable",
      "type": "function"
    },
    {
      "inputs": [
        {
          "internalType": "address",
          "name": "",
          "type": "address"
        }
      ],
      "name": "lenders",
      "outputs": [
        {
          "internalType": "address",
          "name": "lender",
          "type": "address"
        },
        {
          "internalType": "euint64",
          "name": "totalFundedCipher",
          "type": "bytes32"
        },
        {
          "internalType": "euint64",
          "name": "totalInterestEarnedCipher",
          "type": "bytes32"
        },
        {
          "internalType": "euint64",
          "name": "currentExposureCipher",
          "type": "bytes32"
        },
        {
          "internalType": "euint32",
          "name": "activeLoanCountCipher",
          "type": "bytes32"
        },
        {
          "internalType": "euint32",
          "name": "completedLoanCountCipher",
          "type": "bytes32"
        },
        {
          "internalType": "euint16",
          "name": "avgReturnRateCipher",
          "type": "bytes32"
        },
        {
          "internalType": "uint256",
          "name": "firstFundedAt",
          "type": "uint256"
        },
        {
          "internalType": "uint256",
          "name": "lastFundedAt",
          "type": "uint256"
        },
        {
          "internalType": "uint32",
          "name": "fundedCount",
          "type": "uint32"
        }
      ],
      "stateMutability": "view",
      "type": "function"
    },
    {
      "inputs": [],
      "name": "loanCount",
      "outputs": [
        {
          "internalType": "uint256",
          "name": "",
          "type": "uint256"
        }
      ],
      "stateMutability": "view",
      "type": "function"
    },
    {
      "inputs": [
        {
          "internalType": "address",
          "name": "",
          "type": "address"
        }
      ],
      "name": "loanOfficers",
      "outputs": [
        {
          "internalType": "bool",
          "name": "",
          "type": "bool"
        }
      ],
      "stateMutability": "view",
      "type": "function"
    },
    {
      "inputs": [
        {
          "internalType": "uint256",
          "name": "",
          "type": "uint256"
        }
      ],
      "name": "loans",
      "outputs": [
        {
          "internalType": "uint256",
          "name": "loanId",
          "type": "uint256"
        },
        {
          "internalType": "address",
          "name": "borrower",
          "type": "address"
        },
        {
          "internalType": "euint64",
          "name": "requestedAmountCipher",
          "type": "bytes32"
        },
        {
          "internalType": "euint32",
          "name": "requestedTermCipher",
          "type": "bytes32"
        },
        {
          "internalType": "euint32",
          "name": "creditScoreCipher",
          "type": "bytes32"
        },
        {
          "internalType": "euint32",
          "name": "monthlyRevenueCipher",
          "type": "bytes32"
        },
        {
          "internalType": "euint16",
          "name": "paymentHistoryCipher",
          "type": "bytes32"
        },
        {
          "internalType": "euint8",
          "name": "pastDefaultsCipher",
          "type": "bytes32"
        },
        {
          "internalType": "euint8",
          "name": "communityScoreCipher",
          "type": "bytes32"
        },
        {
          "internalType": "enum CipheredMicroloanBazaar.LoanPurpose",
          "name": "purpose",
          "type": "uint8"
        },
        {
          "internalType": "enum CipheredMicroloanBazaar.LoanStatus",
          "name": "status",
          "type": "uint8"
        },
        {
          "internalType": "uint256",
          "name": "submittedAt",
          "type": "uint256"
        },
        {
          "internalType": "uint256",
          "name": "approvedAt",
          "type": "uint256"
        },
        {
          "internalType": "uint256",
          "name": "disbursedAt",
          "type": "uint256"
        },
        {
          "internalType": "uint256",
          "name": "lastStatusChangeAt",
          "type": "uint256"
        },
        {
          "internalType": "uint16",
          "name": "statusChangeCount",
          "type": "uint16"
        },
        {
          "internalType": "bool",
          "name": "isActive",
          "type": "bool"
        }
      ],
      "stateMutability": "view",
      "type": "function"
    },
    {
      "inputs": [
        {
          "internalType": "uint256",
          "name": "loanId",
          "type": "uint256"
        },
        {
          "internalType": "uint64",
          "name": "amount",
          "type": "uint64"
        }
      ],
      "name": "makePayment",
      "outputs": [],
      "stateMutability": "nonpayable",
      "type": "function"
    },
    {
      "inputs": [
        {
          "internalType": "uint256",
          "name": "loanId",
          "type": "uint256"
        }
      ],
      "name": "markAsDefaulted",
      "outputs": [],
      "stateMutability": "nonpayable",
      "type": "function"
    },
    {
      "inputs": [],
      "name": "owner",
      "outputs": [
        {
          "internalType": "address",
          "name": "",
          "type": "address"
        }
      ],
      "stateMutability": "view",
      "type": "function"
    },
    {
      "inputs": [
        {
          "internalType": "uint256",
          "name": "",
          "type": "uint256"
        },
        {
          "internalType": "uint256",
          "name": "",
          "type": "uint256"
        }
      ],
      "name": "paymentHistory",
      "outputs": [
        {
          "internalType": "uint256",
          "name": "loanId",
          "type": "uint256"
        },
        {
          "internalType": "euint64",
          "name": "amountCipher",
          "type": "bytes32"
        },
        {
          "internalType": "euint32",
          "name": "installmentNumberCipher",
          "type": "bytes32"
        },
        {
          "internalType": "euint64",
          "name": "principalPaidCipher",
          "type": "bytes32"
        },
        {
          "internalType": "euint64",
          "name": "interestPaidCipher",
          "type": "bytes32"
        },
        {
          "internalType": "uint256",
          "name": "paidAt",
          "type": "uint256"
        },
        {
          "internalType": "bool",
          "name": "isLate",
          "type": "bool"
        },
        {
          "internalType": "uint32",
          "name": "daysLate",
          "type": "uint32"
        }
      ],
      "stateMutability": "view",
      "type": "function"
    },
    {
      "inputs": [],
      "name": "policy",
      "outputs": [
        {
          "internalType": "uint32",
          "name": "minCreditScore",
          "type": "uint32"
        },
        {
          "internalType": "uint32",
          "name": "maxInterestRate",
          "type": "uint32"
        },
        {
          "internalType": "uint32",
          "name": "minInterestRate",
          "type": "uint32"
        },
        {
          "internalType": "uint64",
          "name": "maxLoanAmount",
          "type": "uint64"
        },
        {
          "internalType": "uint64",
          "name": "minLoanAmount",
          "type": "uint64"
        },
        {
          "internalType": "uint32",
          "name": "maxLoanTerm",
          "type": "uint32"
        },
        {
          "internalType": "uint32",
          "name": "minLoanTerm",
          "type": "uint32"
        },
        {
          "internalType": "uint32",
          "name": "defaultGracePeriod",
          "type": "uint32"
        },
        {
          "internalType": "uint32",
          "name": "latePaymentThreshold",
          "type": "uint32"
        },
        {
          "internalType": "uint32",
          "name": "platformFeeBps",
          "type": "uint32"
        }
      ],
      "stateMutability": "view",
      "type": "function"
    },
    {
      "inputs": [],
      "name": "protocolId",
      "outputs": [
        {
          "internalType": "uint256",
          "name": "",
          "type": "uint256"
        }
      ],
      "stateMutability": "pure",
      "type": "function"
    },
    {
      "inputs": [
        {
          "internalType": "uint256",
          "name": "loanId",
          "type": "uint256"
        }
      ],
      "name": "requestCreditEvaluation",
      "outputs": [
        {
          "internalType": "uint256",
          "name": "",
          "type": "uint256"
        }
      ],
      "stateMutability": "nonpayable",
      "type": "function"
    },
    {
      "inputs": [
        {
          "internalType": "address",
          "name": "account",
          "type": "address"
        }
      ],
      "name": "revokeCollectionAgent",
      "outputs": [],
      "stateMutability": "nonpayable",
      "type": "function"
    },
    {
      "inputs": [
        {
          "internalType": "address",
          "name": "account",
          "type": "address"
        }
      ],
      "name": "revokeCreditAnalyst",
      "outputs": [],
      "stateMutability": "nonpayable",
      "type": "function"
    },
    {
      "inputs": [
        {
          "internalType": "address",
          "name": "account",
          "type": "address"
        }
      ],
      "name": "revokeLoanOfficer",
      "outputs": [],
      "stateMutability": "nonpayable",
      "type": "function"
    },
    {
      "inputs": [
        {
          "internalType": "uint256",
          "name": "",
          "type": "uint256"
        }
      ],
      "name": "schedules",
      "outputs": [
        {
          "internalType": "uint256",
          "name": "loanId",
          "type": "uint256"
        },
        {
          "internalType": "euint32",
          "name": "installmentCountCipher",
          "type": "bytes32"
        },
        {
          "internalType": "euint64",
          "name": "installmentAmountCipher",
          "type": "bytes32"
        },
        {
          "internalType": "euint64",
          "name": "totalPaidCipher",
          "type": "bytes32"
        },
        {
          "internalType": "euint32",
          "name": "installmentsPaidCipher",
          "type": "bytes32"
        },
        {
          "internalType": "euint32",
          "name": "missedPaymentsCipher",
          "type": "bytes32"
        },
        {
          "internalType": "euint64",
          "name": "remainingBalanceCipher",
          "type": "bytes32"
        },
        {
          "internalType": "uint256",
          "name": "nextPaymentDue",
          "type": "uint256"
        },
        {
          "internalType": "uint256",
          "name": "lastPaymentAt",
          "type": "uint256"
        },
        {
          "internalType": "uint32",
          "name": "installmentCountDecrypted",
          "type": "uint32"
        },
        {
          "internalType": "uint32",
          "name": "installmentsPaidDecrypted",
          "type": "uint32"
        },
        {
          "internalType": "bool",
          "name": "isComplete",
          "type": "bool"
        },
        {
          "internalType": "bool",
          "name": "isDefaulted",
          "type": "bool"
        }
      ],
      "stateMutability": "view",
      "type": "function"
    },
    {
      "inputs": [
        {
          "internalType": "uint64",
          "name": "requestedAmountPlain",
          "type": "uint64"
        },
        {
          "internalType": "uint32",
          "name": "requestedTermPlain",
          "type": "uint32"
        },
        {
          "internalType": "uint32",
          "name": "creditScorePlain",
          "type": "uint32"
        },
        {
          "internalType": "uint32",
          "name": "revenuePlain",
          "type": "uint32"
        },
        {
          "internalType": "uint16",
          "name": "historyPlain",
          "type": "uint16"
        },
        {
          "internalType": "uint8",
          "name": "defaultsPlain",
          "type": "uint8"
        },
        {
          "internalType": "uint8",
          "name": "communityPlain",
          "type": "uint8"
        },
        {
          "internalType": "enum CipheredMicroloanBazaar.LoanPurpose",
          "name": "purpose",
          "type": "uint8"
        }
      ],
      "name": "submitLoanApplication",
      "outputs": [
        {
          "internalType": "uint256",
          "name": "",
          "type": "uint256"
        }
      ],
      "stateMutability": "nonpayable",
      "type": "function"
    },
    {
      "inputs": [],
      "name": "totalActiveBalanceCipher",
      "outputs": [
        {
          "internalType": "euint64",
          "name": "",
          "type": "bytes32"
        }
      ],
      "stateMutability": "view",
      "type": "function"
    },
    {
      "inputs": [],
      "name": "totalInterestCollectedCipher",
      "outputs": [
        {
          "internalType": "euint128",
          "name": "",
          "type": "bytes32"
        }
      ],
      "stateMutability": "view",
      "type": "function"
    },
    {
      "inputs": [],
      "name": "totalLoansCompleted",
      "outputs": [
        {
          "internalType": "uint256",
          "name": "",
          "type": "uint256"
        }
      ],
      "stateMutability": "view",
      "type": "function"
    },
    {
      "inputs": [],
      "name": "totalLoansDefaulted",
      "outputs": [
        {
          "internalType": "uint256",
          "name": "",
          "type": "uint256"
        }
      ],
      "stateMutability": "view",
      "type": "function"
    },
    {
      "inputs": [],
      "name": "totalLoansIssued",
      "outputs": [
        {
          "internalType": "uint256",
          "name": "",
          "type": "uint256"
        }
      ],
      "stateMutability": "view",
      "type": "function"
    },
    {
      "inputs": [],
      "name": "totalVolumeProcessedCipher",
      "outputs": [
        {
          "internalType": "euint128",
          "name": "",
          "type": "bytes32"
        }
      ],
      "stateMutability": "view",
      "type": "function"
    },
    {
      "inputs": [
        {
          "components": [
            {
              "internalType": "uint32",
              "name": "minCreditScore",
              "type": "uint32"
            },
            {
              "internalType": "uint32",
              "name": "maxInterestRate",
              "type": "uint32"
            },
            {
              "internalType": "uint32",
              "name": "minInterestRate",
              "type": "uint32"
            },
            {
              "internalType": "uint64",
              "name": "maxLoanAmount",
              "type": "uint64"
            },
            {
              "internalType": "uint64",
              "name": "minLoanAmount",
              "type": "uint64"
            },
            {
              "internalType": "uint32",
              "name": "maxLoanTerm",
              "type": "uint32"
            },
            {
              "internalType": "uint32",
              "name": "minLoanTerm",
              "type": "uint32"
            },
            {
              "internalType": "uint32",
              "name": "defaultGracePeriod",
              "type": "uint32"
            },
            {
              "internalType": "uint32",
              "name": "latePaymentThreshold",
              "type": "uint32"
            },
            {
              "internalType": "uint32",
              "name": "platformFeeBps",
              "type": "uint32"
            }
          ],
          "internalType": "struct CipheredMicroloanBazaar.MarketplacePolicy",
          "name": "newPolicy",
          "type": "tuple"
        }
      ],
      "name": "updatePolicy",
      "outputs": [],
      "stateMutability": "nonpayable",
      "type": "function"
    }
  ],
  "bytecode": "0x608060409080825234620002ee576200001881620002f3565b600080825280606060209382858201528286820152015282516200003c81620002f3565b73687820221192c5b662b25367f70076a37bc79b6c80825273848b0066793bcc60346da1f49049357399b8d59584830181905273a02cda4ca3a71d7c46997716f4283aa851c28812868401819052731364cbbf2cdf5032c47d8226a6f6fbd2afcdacac60609094018490527f9e7b61f58c47dc699ac88507c4f5bb9f121c03808c5676a8078fe583e464970080546001600160a01b031990811690941790556000805160206200563b8339815191528054841690921782557f9e7b61f58c47dc699ac88507c4f5bb9f121c03808c5676a8078fe583e46497028054841690911790557f9e7b61f58c47dc699ac88507c4f5bb9f121c03808c5676a8078fe583e46497038054831690931790925582541633178255835161014081016001600160401b03811182821017620002da5785526102268152610e10818501526101f485820152620186a060608201526103e860808201526102da60a0820152601e60c0820152600f60e08201526003610100820152606461012091909101527d02da00000000000003e800000000000186a0000001f400000e1000000226600b55600c80546001600160801b0319166c64000000030000000f0000001e179055819083906200020762000349565b6011556200021462000349565b601255548551639cd07acb60e01b8152600481018590526005602482015293849160449183916001600160a01b03165af1928315620002ce57819362000294575b5050506013556200026a6011543090620003de565b6200027830601254620003de565b6200028630601354620003de565b516151d190816200046a8239f35b9091809350813d8311620002c6575b620002af818362000325565b81010312620002c357505138808062000255565b80fd5b503d620002a3565b508351903d90823e3d90fd5b634e487b7160e01b84526041600452602484fd5b600080fd5b608081019081106001600160401b038211176200030f57604052565b634e487b7160e01b600052604160045260246000fd5b601f909101601f19168101906001600160401b038211908210176200030f57604052565b60018060a01b036000805160206200563b8339815191525416604051639cd07acb60e01b815260208160448160008096816004840152600660248401525af1918215620003d25780926200039c57505090565b9091506020823d602011620003c9575b81620003bb6020938362000325565b81010312620002c357505190565b3d9150620003ac565b604051903d90823e3d90fd5b7f9e7b61f58c47dc699ac88507c4f5bb9f121c03808c5676a8078fe583e4649700546001600160a01b0392908316803b15620002ee57600092836044926040519687958694635ca4b5b160e11b865260048601521660248401525af180156200045d57620004495750565b6001600160401b0381116200030f57604052565b6040513d6000823e3d90fdfe608080604052600436101561001357600080fd5b60003560e01c908163033d5e4d14614391575080630505c8c9146143015780630714012c146142625780630cd3ca721461420e5780630d45b45a14613f855780632467052e14613b8d57806328fd10d714613ae65780632ed11be714613a945780632f1790b1146139f95780632f380b351461398a57806333c63b171461388457806335611b0c1461366f5780633db3782d146136515780633f2d7069146132165780634e02503a146131ea5780635c1165ac146131ab5780636645bd4b1461311257806378c0f649146130b9578063812d966a1461308257806382580e9014613043578063829c6ac014611d755780638da5cb5b14611d4c57806390e2471514611b1f578063a3d873e314611153578063a53cb9af14611135578063a874302214610dc3578063ae99b59614610da5578063b16e686e14610d66578063b27062db14610cd5578063b73e4da014610882578063bdc6d9ab146107c3578063bf5d50c4146106fa578063c11bdcdc1461065c578063c7959d041461063e578063cd13bf8b146105a1578063ce63094d14610583578063da1f12ab14610566578063dd5b862b146104ca578063e1ec3c68146103c0578063e92810be1461031b578063ea9ce311146102b6578063f3b97a9d14610298578063fe77e4ab146102265763fe97290c1461020357600080fd5b34610221576000366003190112610221576020601054604051908152f35b600080fd5b3461022157602036600319011261022157600435600052600560205260a0604060002060ff600882015491600963ffffffff910154908260405194828160a81c16865260c81c1660208501526001600160401b03821660408501528160401c16606084015260c01c1615156080820152f35b34610221576000366003190112610221576020601354604051908152f35b34610221576020366003190112610221576001600160a01b036102d7614403565b16600052600a6020526040600020600881015461031760098301549261030a600163ffffffff600a840154169201614500565b9060405194859485614419565b0390f35b3461022157602036600319011261022157610334614403565b6000546001600160a01b03919061034e90831633146146ee565b168060005260036020526040600020600160ff198254161790557fb710f7d3e79cb091613cfea70444ea824ad23f2b1297bdea427bc6f097e346a8604051806103bb8160609060208152600f60208201526e10dbdb1b1958dd1a5bdb9059d95b9d608a1b60408201520190565b0390a2005b3461022157602036600319011261022157600435600052600460205260406000208054600160a01b6001900360018301541691600281015460038201546004830154600584015460068501546007860154600887015491600988015493600a89015495600b8a015497600c8b015499600d8c01549b600e01549c6040519e8f91825260208201526040015260608d015260808c015260a08b015260c08a015260e0890152610100880152610120870160ff82169061047d916143f6565b61014087019060081c60ff1690610493916143e9565b6101608601526101808501526101a08401526101c083015261ffff81166101e083015260101c60ff16151561020082015261022090f35b34610221576020366003190112610221576104e3614403565b6000546001600160a01b0391906104fd90831633146146ee565b168060005260026020526040600020600160ff198254161790557fb710f7d3e79cb091613cfea70444ea824ad23f2b1297bdea427bc6f097e346a8604051806103bb8160609060208152600b60208201526a2637b0b727b33334b1b2b960a91b60408201520190565b346102215760003660031901126102215760206040516127118152f35b34610221576000366003190112610221576020600d54604051908152f35b34610221576020366003190112610221576105ba614403565b6000546001600160a01b0391906105d490831633146146ee565b16806000526003602052604060002060ff1981541690557f9f43a01c0d4ff5aff09b3b9b472df707ceefd3f948f8942f10fa1562a8921304604051806103bb8160609060208152600f60208201526e10dbdb1b1958dd1a5bdb9059d95b9d608a1b60408201520190565b34610221576000366003190112610221576020600e54604051908152f35b3461022157602036600319011261022157610675614403565b6000546001600160a01b03919061068f90831633146146ee565b168060005260016020526040600020600160ff198254161790557fb710f7d3e79cb091613cfea70444ea824ad23f2b1297bdea427bc6f097e346a8604051806103bb8160609060208152600d60208201526c10dc99591a5d105b985b1e5cdd609a1b60408201520190565b34610221576020366003190112610221576101a06001600160a01b038061071f614403565b1660005260096020526040600020908154169060028101549060038101546004820154600583015460068401546007850154600886015491600987015493600a88015495600b8901549763ffffffff600d600c8c01549b0154169a6040519c8d5260208d015260408c015260608b015260808a015260a089015260c088015260e0870152610100860152610120850152610140840152610160830152610180820152f35b346102215760203660031901126102215760043560005260076020526101a0604060002060ff8154916001810154600282015491600381015460048201546005830154600684015491600785015493600960088701549601549763ffffffff976040519b8c5260208c015260408b015260608a0152608089015260a088015260c087015260e08601526101008501528082166101208501528160201c16610140840152818160401c16151561016084015260481c161515610180820152f35b346102215760203660031901126102215733600052600260205260ff6040600020541615610c9d57600435600052600460205260406000206009810154600a60ff8260081c161015610c87576108e0600460ff8360081c1614614622565b600435600052600660205260406000209160ff600c8401541615610c4a576004356000526005602052604060002061050061ff0019841617600983015542600c83015542600d830155600e82015461ffff61093c81831661460f565b169061ffff191617600e8301556004356000526007602052604060002090600435825563ffffffff80600983015460601c1681811515600014610c3f57601d915b160192818411610c295761099782601e8187160416614b9a565b60018201556109b182601e8187160416600685015461494f565b60028201556109be614aaa565b60038201556109cb614afa565b60048201556109d8614afa565b60058201556006830154600682015562278d0042014211610c2957610b0993610a729262278d0042016007840155601e8160098501931604166001600160401b0319825416179055610a2f60018201543090614e8b565b610a3d306002830154614e8b565b610a4b306003830154614e8b565b610a59306004830154614e8b565b610a67306005830154614e8b565b600630910154614e8b565b60018060a01b036001840154166000526009602052610af8604060002060038101610aa68154610aa0614c98565b906147e4565b905560086006820191825492610ac260038701948554906147b2565b905501610ad581546006860154906147b2565b9055610ae2600e5461467a565b600e55610af2601154915461505b565b90614a2b565b6011556006601354910154906147b2565b60135560005b6001840154811015610b5d5780610b2a600192838701614662565b838060a01b0391549060031b1c16600052600a6020526005604060002001610b558154610aa0614c98565b905501610b0f565b60ff80610c1384610ba5876040514281527fb2e7e42df3fc0061410ecdbb2644b7b36cd803c2c7d9f20515593b59d98b988c602060043592a260405194859160081c166143e9565b6005602084015242604084015260008051602061517c8339815191529283606060043592a260098101549061060061ff0019831617600982015542600d820155600e8082015461ffff610bf981831661460f565b169061ffff19161791015560405193849160081c166143e9565b60066020830152426040830152606060043592a2005b634e487b7160e01b600052601160045260246000fd5b601d915060b461097d565b60405162461bcd60e51b8152602060048201526015602482015274131bd85b881b9bdd08199d5b1b1e48199d5b991959605a1b6044820152606490fd5b634e487b7160e01b600052602160045260246000fd5b60405162461bcd60e51b815260206004820152601060248201526f2737ba103637b0b71037b33334b1b2b960811b6044820152606490fd5b3461022157610ce336614497565b906000526008602052604060002080548210156102215761010091610d07916144ad565b5063ffffffff815491600181015490600281015460038201546004830154916006600585015494015494604051978852602088015260408701526060860152608085015260a084015260ff8116151560c084015260081c1660e0820152f35b34610221576020366003190112610221576001600160a01b03610d87614403565b166000526001602052602060ff604060002054166040519015158152f35b34610221576000366003190112610221576020600f54604051908152f35b346102215760208060031936011261022157600435336000526003916003815260ff60406000205416156110fa578160005260048152604060002092600984019360ff855460081c1690600a91600a811015610c8757806006610e2f92149081156110ef575b506145d2565b84600052600784526040600020610e5f600782015463ffffffff610e5881600c548a1c1661478b565b16906147a5565b4211156110aa57600901805469ff00000000000000000019166901000000000000000000179055855461ff001981166109001790965542600d820155600e810180546001949392919061ffff610eb681831661460f565b169062ffffff1916179055838060a01b038085869301541660005260098652604060002090600a60059260058101610ef18154610aa0614c98565b905560038101610f0a8154610f04614c98565b90614836565b905501610f66610f308254610f1d614de5565b90801561109c575b811561108c576150b1565b610f588354610f3d614de5565b90801561107e575b811561106e575b9d9b9c9d9a999a615106565b610f60614ce9565b91614fb0565b905588600052600688526040600020956000966002600182019101945b610ff6575b8a60008051602061517c833981519152606060ff60098e610fea8f610fae60105461467a565b601055877ff5c2e2ff5a0aa88c6e9352be55b58e2c44042366ea1a2e7a63b3b8ad3ef36c4984604051428152a260405194859160081c166143e9565b820152426040820152a2005b809a9899979a548b101561106457868b8961105786849c9d9e9f61101a9087614662565b905490881b1c16806000528a835289600460406000208b81016110408154610f04614c98565b905501938454926000525260406000205490614a02565b905501979a98999a610f83565b8799989a50610f88565b9050611078614ce9565b90610f4c565b50611087614ce9565b610f45565b9050611096614ce9565b906150b1565b506110a5614ce9565b610f25565b60405162461bcd60e51b815260048101869052601860248201527f477261636520706572696f64206e6f74206578706972656400000000000000006044820152606490fd5b600791501488610e29565b6064906040519062461bcd60e51b825260048201526014602482015273139bdd0818dbdb1b1958dd1a5bdb881859d95b9d60621b6044820152fd5b34610221576000366003190112610221576020601254604051908152f35b346102215760403660031901126102215761116c614481565b6004356000526004602052604060002060018060a01b036001820154163303611aeb5760ff600982015460081c16600a811015610c87578060066111b89214908115611ae057506145d2565b600435600052600760205260406000209160ff600984015460481c16611aaa576001600160401b036111ea9116614a54565b6111f43082614e8b565b600383016112038282546147b2565b90556112156004840154610aa0614c98565b600484015561124f611239600685015483908015611a9c575b8415611a8c57614f5b565b611247836006870154614a02565b610f60614aaa565b60068401556004356000526005602052600061128c61127b604083206003600682015491015490614a02565b63ffffffff6009870154169061494f565b808015611a7a575b60008051602061515c83398151915254604051630afe14ad60e31b8152600481019290925260026024830152600160f81b6044830152909260209184916064918391906001600160a01b03165af19182156118e857600092611a46575b508183928415611a36575b15611a24575b602090606460018060a01b0360008051602061515c83398151915254169460006040519687948593631d44e90160e21b8552600485015260248401528160448401525af180156118e85783906000906119ee575b6113609350614fb0565b61136a8183614a02565b600785015461138e63ffffffff61138781600c5460401c1661478b565b16826147a5565b42119081156119e6574281420311610c29576201518063ffffffff91420304165b60048701549160405193846101008101106001600160401b03610100870111176119d05763ffffffff9361010086016040526004358652876020870152604086015260608501528460808501524260a085015260c08401521660e0820152600435600052600860205260406000208054600160401b8110156119d05761143a916001820181556144ad565b6119ba57600690825181556020830151600182015560408301516002820155606083015160038201556080830151600482015560a08301516005820155019060c081015115159060ff64ffffffff0060e0855493015160081b1692169064ffffffffff191617179055426008850155600784015462278d0081018111610c295762278d00016007850155600983015490600a60ff8360081c161015610c87576115629382600660ff6115579560081c1614611949575b506004356000526006602052600760406000200161150f8382546147b2565b90556001808060a01b03910154166000526009602052600860406000206007810161153b8682546147b2565b905501611549848254614a02565b9055610af26012549161505b565b601255601354614a02565b60135563ffffffff806009808401549367ffffffff00000000611589848760201c166146d9565b60201b1667ffffffff0000000019861617918291015560201c169160405183815242602082015233907f94bd345e6cec5291aa2ca4ebc95c3fba650ec07cc64bee9e6399417de3aeab70604060043592a31611156115e357005b6004356000526004602052604060002060076020526009604060002001600160401b68ff00000000000000001982541617905560098101549061080061ff0019831617600982015542600d820155600e8101805461ffff61164581831661460f565b62ffffff199092169116179055600101546001600160a01b0316600090815260096020526040902060048101805461167f90610aa0614c98565b9055600381016116928154610f04614c98565b9055600a8101546116a1614d8f565b8115611939575b8015611927575b602090606460018060a01b0360008051602061515c83398151915254169360006040519586948593637210768160e01b8552600485015260248401528160448401525af180156118e8576000906118f4575b60009150600a830154602060018060a01b0360008051602061515c8339815191525416604460405180968193639cd07acb60e01b8352600a6004840152600260248401525af19283156118e8576000936118b0575b50906117758361177d93600a959181156118a0575b1561189057614f06565b610f60614d39565b9101556004356000526006602052604060002060005b600182015481101561181857806117ae600192838501614662565b838060a01b0391549060031b1c1680600052600a60205261181060046040600020600681016117e08154610aa0614c98565b9055600581016117f38154610f04614c98565b905501918254906000526002860160205260406000205490614a02565b905501611793565b505061186b60ff9161182b600f5461467a565b600f556040514281527f03d7f456a773b484d2552719bd744b62049588737d6a02948eba3dcae1b0d77f602060043592a260405192839160081c166143e9565b6008602082015242604082015260008051602061517c833981519152606060043592a2005b905061189a614ce9565b90614f06565b90506118aa614ce9565b9061176b565b9250906020833d6020116118e0575b816118cc602093836144df565b810103126102215791519190611775611756565b3d91506118bf565b6040513d6000823e3d90fd5b506020813d60201161191f575b8161190e602093836144df565b810103126102215760009051611701565b3d9150611901565b506020611932614ce9565b90506116af565b9050611943614ce9565b906116a8565b61199160ff9161070061ff0019821617600985015542600d850155600e8401805461ffff61197881831661460f565b169061ffff191617905560405192839160081c166143e9565b6007602082015242604082015260008051602061517c833981519152606060043592a2866114f0565b634e487b7160e01b600052600060045260246000fd5b634e487b7160e01b600052604160045260246000fd5b5060006113af565b50506020823d602011611a1c575b81611a09602093836144df565b8101031261022157826113609251611356565b3d91506119fc565b506020611a2f614aaa565b9050611302565b9250611a40614aaa565b926112fc565b9091506020813d602011611a72575b81611a62602093836144df565b81010312610221575190856112f1565b3d9150611a55565b506020611a85614aaa565b9050611294565b9050611a96614aaa565b90614f5b565b50611aa5614aaa565b61122e565b60405162461bcd60e51b815260206004820152600e60248201526d131bd85b88191959985d5b1d195960921b6044820152606490fd5b600791501484610e29565b60405162461bcd60e51b815260206004820152600c60248201526b2737ba103137b93937bbb2b960a11b6044820152606490fd5b346102215761014036600319011261022157611b4660018060a01b036000541633146146ee565b63ffffffff80611b54614726565b1615611d1057611b6261475f565b6001600160401b0380611b73614775565b1691161115611cd457611b84614739565b8180611b8e61474c565b1691161115611c965780611ba0614726565b169067ffffffff0000000091611bb4614739565b63ffffffff60401b9182611bc661474c565b60401b1691611bd361475f565b9267ffffffffffffffff60a01b611be8614775565b60a01b169260a435878116810361022157889063ffffffff60e01b9060e01b16956001600160401b0360601b9060601b169360201b161717171717600b5560c43582811680910361022157600c549360e4359184831683036102215761010435948086168603610221576101243590811681036102215763ffffffff60601b9060601b16956fffffffffffffffffffffffffffffffff1916179160201b16179160401b161717600c55600080f35b60405162461bcd60e51b8152602060048201526016602482015275496e76616c696420696e74657265737420726174657360501b6044820152606490fd5b60405162461bcd60e51b8152602060048201526014602482015273496e76616c6964206c6f616e20616d6f756e747360601b6044820152606490fd5b60405162461bcd60e51b8152602060048201526014602482015273496e76616c6964206372656469742073636f726560601b6044820152606490fd5b34610221576000366003190112610221576000546040516001600160a01b039091168152602090f35b3461022157602036600319011261022157336000526001602052611da060ff60406000205416614553565b60043560005260046020526040600020600e810154611dc460ff8260101c16614594565b600982015490600a60ff8360081c161015610c8757611deb600160ff8460081c16146145d2565b61ff0019821661020017600984015542600d84015561ffff611e0e82821661460f565b169061ffff191617600e830155604051611e2e8160ff8460081c166143e9565b6002602082015242604082015260008051602061517c833981519152606060043592a260405191826101408101106001600160401b03610140850111176119d0576101408301604052600b5463ffffffff8116845263ffffffff8160201c16602085015263ffffffff8160401c1660408501526001600160401b038160601c1660608501526001600160401b038160a01c16608085015260e01c60a084015263ffffffff600c5481811660c0860152818160201c1660e0860152818160401c1661010086015260601c1661012084015260006008820154602060018060a01b0360008051602061515c8339815191525416604460405180958193639cd07acb60e01b835260076004840152600260248401525af19081156118e85760009161300d575b611f689250818115612ffd575b15612ff357614f5b565b6000602060018060a01b0360008051602061515c8339815191525416604460405180948193639cd07acb60e01b835260326004840152600460248401525af19081156118e857600091612fbf575b50611fd191611fc791610f60614afa565b60048301546147e4565b600682015460008051602061515c83398151915254604051639cd07acb60e01b8152600a6004820152600360248201529190602090839060449082906000906001600160a01b03165af19081156118e857600091612f89575b6120419250818115612f79575b15612f6f57614f5b565b6000602060018060a01b0360008051602061515c8339815191525416604460405180948193639cd07acb60e01b8352601e6004840152600460248401525af19081156118e857600091612f39575b5091610aa06120a392600094610f60614afa565b60206007840154604460018060a01b0360008051602061515c83398151915254169160405195869384926307227b9160e21b84526004840152600460248401525af180156118e857600090612f06575b600092508015612ef4575b60008051602061515c83398151915254604051630afe14ad60e31b81526004810192909252606460248301819052600160f81b604484015291936020928592909183916001600160a01b03165af19182156118e857600092612ebe575b506121728261216c6000948461480d565b92614836565b602060018060a01b0360008051602061515c8339815191525416604460405180968193639cd07acb60e01b835261012c6004840152600460248401525af19182156118e857600092612e88575b6121c99350614fb0565b6000602060018060a01b0360008051602061515c8339815191525416604460405180948193639cd07acb60e01b83526102ee6004840152600460248401525af180156118e857600090612e54575b612222915082614865565b936000602060018060a01b0360008051602061515c8339815191525416604460405180948193639cd07acb60e01b835261028a6004840152600460248401525af180156118e857600090612e20575b61227c915083614865565b906000602060018060a01b0360008051602061515c8339815191525416604460405180948193639cd07acb60e01b83526102266004840152600460248401525af180156118e857600090612dec575b6122d6915084614865565b916000602060018060a01b0360008051602061515c8339815191525416604460405180948193639cd07acb60e01b83526101c26004840152600460248401525af180156118e857600090612db8575b612330915085614865565b96600061233b614ce9565b60008051602061515c83398151915254604051639cd07acb60e01b815260016004820152600260248201529260209184916044918391906001600160a01b03165af180156118e857600090612d85575b60008051602061515c83398151915254604051639cd07acb60e01b815260026004820181905260248201529350602090849060449082906000906001600160a01b03165af19283156118e857600093612d51575b5060008051602061515c83398151915254604051639cd07acb60e01b8152600360048201526002602482015290602090829060449082906000906001600160a01b03165af180156118e857600090612d1e575b60008051602061515c83398151915254604051639cd07acb60e01b8152600480820152600260248201529250602090839060449082906000906001600160a01b03165af19182156118e8578d90600093612ce4575b509461249e6124ac94936124a5936124b398614fb0565b908a614fb0565b9086614fb0565b9083614fb0565b976124bc614d39565b6124c4614d8f565b60008051602061515c83398151915254604051639cd07acb60e01b8152604b60048201526002602482015290602090829060449082906000906001600160a01b03165af19081156118e857600091612cae575b509161254861254f926125416125639561253a612532614c42565b61249e614ce9565b908c614fb0565b9088614fb0565b9085614fb0565b61255d60028a015491615005565b9061488e565b8015612c99575b60008051602061515c83398151915254604051635a53accb60e01b81526004810192909252606460248301819052600160f81b604484015260209183919082906000906001600160a01b03165af19081156118e857600091612c65575b506126166000916125fa6125e76001600160401b0360608a015116614a54565b828315612c57575b8115612c4d576150b1565b6126106001600160401b0360608a015116614a54565b90614fb0565b95602060018060a01b0360008051602061515c8339815191525416604460405180958193639cd07acb60e01b83526103206004840152600460248401525af19182156118e857600092612c18575b5060009192602060018060a01b0360008051602061515c8339815191525416604460405180968193639cd07acb60e01b83526104b06004840152600460248401525af19283156118e857600093612be3575b50600090602060018060a01b0360008051602061515c8339815191525416604460405180958193639cd07acb60e01b83526107086004840152600460248401525af19182156118e857600092612bae575b50600090602060018060a01b0360008051602061515c8339815191525416604460405180958193639cd07acb60e01b83526109606004840152600460248401525af19081156118e857600091612b79575b60009250602060018060a01b0360008051602061515c8339815191525416604460405180968193639cd07acb60e01b8352610bb86004840152600460248401525af19283156118e857600093612b37575b5092610f60610f60936127c29a9693610f609896614fb0565b9060006005860154602060018060a01b0360008051602061515c8339815191525416604460405180958193639cd07acb60e01b835261c3506004840152600460248401525af19081156118e857600091612b01575b6128219250614865565b6000602060018060a01b0360008051602061515c8339815191525416604460405180948193639cd07acb60e01b835260c86004840152600460248401525af19081156118e857600091612acb575b5092610f04612884926128af95610f60614afa565b9061261063ffffffff60206128a66128a0838387015116614b9a565b8661480d565b93015116614b9a565b946128d26128c56128bf88615005565b8461488e565b61255d6003870154615005565b8015612ab6575b60008051602061515c83398151915254604051635a53accb60e01b815260048101929092526237b1d06024830152600160f81b6044830152602090829060649082906000906001600160a01b03165af19081156118e857600091612a77575b60ff612a1388886129ce896129c78e6129c78c6129c78d6129c761295c8f856147b2565b97600435600052600560205260086040600020600435815582600182015584600282015586600382015588600482015560038d015460058201558a60068201554260078201550180548f60a01b193316906affffffffffffffffffffff60a81b161790553090614e8b565b3090614e8b565b60098101805461ff00191661030017905542600d820155600e8082015461ffff6129f981831661460f565b169061ffff19161791015560405192839160081c166143e9565b6003602082015242604082015260008051602061517c833981519152606060043592a2604051600081523360208201527fd26fc48bde986a287d352ad9f2a6878c5b9c5c099477626d98cebada2ec30e6e604060043592a260206040516004358152f35b905060209594939195813d602011612aae575b81612a97602093836144df565b8101031261022157519394929390929060ff612938565b3d9150612a8a565b5060006020612ac3614aaa565b9150506128d9565b9390506020843d602011612af9575b81612ae7602093836144df565b81010312610221579251610f0461286f565b3d9150612ada565b90506020823d602011612b2f575b81612b1c602093836144df565b8101031261022157612821915190612817565b3d9150612b0f565b989491925094926020893d602011612b71575b81612b57602093836144df565b810103126102215797519397929490939190610f606127a9565b3d9150612b4a565b90506020823d602011612ba6575b81612b94602093836144df565b81010312610221576000915190612758565b3d9150612b87565b9091506020813d602011612bdb575b81612bca602093836144df565b810103126102215751906000612707565b3d9150612bbd565b9092506020813d602011612c10575b81612bff602093836144df565b8101031261022157519160006126b6565b3d9150612bf2565b91506020823d602011612c45575b81612c33602093836144df565b81010312610221576000915191612664565b3d9150612c26565b9050611096614aaa565b50612c60614aaa565b6125ef565b90506020813d602011612c91575b81612c80602093836144df565b8101031261022157516126166125c7565b3d9150612c73565b5060006020612ca6614aaa565b91505061256a565b9290506020833d602011612cdc575b81612cca602093836144df565b81010312610221579151612548612517565b3d9150612cbd565b91939250506020813d602011612d16575b81612d02602093836144df565b81010312610221575190918c61249e612487565b3d9150612cf5565b506020813d602011612d49575b81612d38602093836144df565b810103126102215760009051612432565b3d9150612d2b565b9092506020813d602011612d7d575b81612d6d602093836144df565b810103126102215751918b6123df565b3d9150612d60565b506020823d602011612db0575b81612d9f602093836144df565b81010312610221576000915161238b565b3d9150612d92565b506020813d602011612de4575b81612dd2602093836144df565b81010312610221576123309051612325565b3d9150612dc5565b506020813d602011612e18575b81612e06602093836144df565b81010312610221576122d690516122cb565b3d9150612df9565b506020813d602011612e4c575b81612e3a602093836144df565b810103126102215761227c9051612271565b3d9150612e2d565b506020813d602011612e80575b81612e6e602093836144df565b81010312610221576122229051612217565b3d9150612e61565b91506020833d602011612eb6575b81612ea3602093836144df565b81010312610221576121c99251916121bf565b3d9150612e96565b91506020823d602011612eec575b81612ed9602093836144df565b810103126102215790519061217261215b565b3d9150612ecc565b506020612eff614afa565b90506120fe565b506020823d602011612f31575b81612f20602093836144df565b8101031261022157600091516120f3565b3d9150612f13565b9290506020833d602011612f67575b81612f55602093836144df565b81010312610221579151610aa061208f565b3d9150612f48565b9050611a96614b4a565b9050612f83614b4a565b90612037565b90506020823d602011612fb7575b81612fa4602093836144df565b810103126102215761204191519061202a565b3d9150612f97565b90506020813d602011612feb575b81612fda602093836144df565b810103126102215751611fd1611fb6565b3d9150612fcd565b9050611a96614ce9565b9050613007614ce9565b90611f5e565b90506020823d60201161303b575b81613028602093836144df565b8101031261022157611f68915190611f51565b3d915061301b565b34610221576020366003190112610221576001600160a01b03613064614403565b166000526003602052602060ff604060002054166040519015158152f35b34610221576000366003190112610221576080600d54600e54600f5460105491604051938452602084015260408301526060820152f35b34610221576040366003190112610221576024356001600160a01b0381169081900361022157600435600052600660205260096040600020019060005260205260206001600160401b0360406000205416604051908152f35b346102215760203660031901126102215761312b614403565b6000546001600160a01b03919061314590831633146146ee565b16806000526002602052604060002060ff1981541690557f9f43a01c0d4ff5aff09b3b9b472df707ceefd3f948f8942f10fa1562a8921304604051806103bb8160609060208152600b60208201526a2637b0b727b33334b1b2b960a91b60408201520190565b34610221576020366003190112610221576001600160a01b036131cc614403565b166000526002602052602060ff604060002054166040519015158152f35b346102215760203660031901126102215760043560005260086020526020604060002054604051908152f35b34610221576101008060031936011261022157600435906001600160401b0382168092036102215761324661446e565b906044359163ffffffff908184168094036102215760643593828516809503610221576084359061ffff82168092036102215760a4359460ff86168096036102215760c4359560ff87168097036102215760e435966005881015610221576132cc6132c66132c0896132b960009e614a54565b9916614b9a565b95614b9a565b99614b9a565b9160018060a01b0360008051602061515c833981519152541660405196639cd07acb60e01b88526004880152600360248801528660448160209e8f945af19586156118e857600096613620575b509461332f613329600e97614bec565b92614bec565b9261333a3089614e8b565b6133443087614e8b565b61334e308c614e8b565b6133583082614e8b565b6133623083614e8b565b61336c3084614e8b565b6133763085614e8b565b6133803389614e8b565b61338a3387614e8b565b613394338c614e8b565b61339e3382614e8b565b6133a83383614e8b565b6133b23384614e8b565b6133bc3385614e8b565b600d549a6133c98c61467a565b600d558b60005260048d526040600020968c885560018801996bffffffffffffffffffffffff60a01b9a338c82541617905560028901556003880155600487015560058601556006850155600784015560088301556009820190815460ff88169061ffff19161717905542600a82015542600d820155016201000162ffffff198254161790553360005260098552604060002090600b820190815415613518575b50508061347c856001600d94016146a4565b6002810161348d8154610aa0614c98565b905542600c82015501908154906134a58183166146d9565b169063ffffffff19161790556134be60405180926143f6565b4283820152817fa4ae4283e6dad30b7048cf0bef2dca7b07a3cc010a36bbf723bfd10e2d412ba760403393a38060008051602061517c833981519152606060405160008152600186820152426040820152a2604051908152f35b8254163317825542905561352a614afa565b60028201908155613539614afa565b60038301908155613548614afa565b60048401908155613557614afa565b60058501908155613566614aaa565b60068601908155613575614aaa565b9160078701928355613585614aaa565b9360088801948555613595614b4a565b95600989019687556135a5614c42565b600a8a0190815597546135b9903090614e8b565b546135c5903090614e8b565b546135d1903090614e8b565b546135dd903090614e8b565b546135e9903090614e8b565b546135f5903090614e8b565b54613601903090614e8b565b5461360d903090614e8b565b54613619903090614e8b565b858061346a565b95508a86813d831161364a575b61363781836144df565b810103126102215794519461332f613319565b503d61362d565b34610221576000366003190112610221576020601154604051908152f35b3461022157602036600319011261022157600435600052600460205260ff60096040600020015460081c16600a811015610c875760080361384a576004356000526006602052604060002060ff600c82015460081c1661380f576001600160401b0360088201541660005b60018301548110156137e3576136f38160018501614662565b60018060a01b0391549060031b1c169081600052600384016020526001600160401b0360406000205416830291826001600160401b03811603610c29576001600160401b036006860154169283156137cd576001600160401b0360019483600052600988016020528160406000209316041690816001600160401b0319825416179055600a6020526003604060002001613797815461379184614a54565b906147b2565b90556040519081527fc48f3501ccb15a0c9ed21134dfb3fa0cf3528b503d0fd3fcd998e27773f6219f602060043592a3016136da565b634e487b7160e01b600052601260045260246000fd5b50600c8201805461ff001916610100179055600891909101805467ffffffffffffffff19169091179055005b60405162461bcd60e51b8152602060048201526013602482015272105b1c9958591e48191a5cdd1c9a589d5d1959606a1b6044820152606490fd5b60405162461bcd60e51b8152602060048201526012602482015271131bd85b881b9bdd0818dbdb5c1b195d195960721b6044820152606490fd5b34610221576020366003190112610221576004356000526005602052610220604060002060ff81549160018101548260028301549260038101546004820154600583015460068401549160078501549360096008870154960154986001600160401b03986040519c8d5260208d015260408c015260608b015260808a015260a089015260c088015260e087015260018060a01b038116610100870152818160a01c16151561012087015263ffffffff8160a81c1661014087015260c81c1661016085015280821661018085015263ffffffff8260401c166101a085015263ffffffff8260601c166101c08501528160801c166101e084015260c01c161515610200820152f35b3461022157602036600319011261022157600435600052600660205260a0604060002060ff600b820154916001600160401b0390600c826006830154169260088301541691015491604051948552602085015260408401528181161515606084015260081c1615156080820152f35b3461022157602036600319011261022157613a12614403565b6000546001600160a01b039190613a2c90831633146146ee565b16806000526001602052604060002060ff1981541690557f9f43a01c0d4ff5aff09b3b9b472df707ceefd3f948f8942f10fa1562a8921304604051806103bb8160609060208152600d60208201526c10dc99591a5d105b985b1e5cdd609a1b60408201520190565b34610221576060613aba613aa736614497565b90600052600860205260406000206144ad565b5063ffffffff6006600583015492015460405192835260ff81161515602084015260081c166040820152f35b34610221576020366003190112610221576101406001600160a01b0380613b0b614403565b16600052600a6020526040600020908154169060028101549060038101546004820154600583015460068401549060078501549260088601549463ffffffff600a60098901549801541697604051998a5260208a015260408901526060880152608087015260a086015260c085015260e0840152610100830152610120820152f35b604036600319011261022157600435613ba4614481565b908060005260209160048352604060002060ff600982015460081c1690600a821015610c8757600e60ff91613bde6004613be99514614622565b015460101c16614594565b6001600160401b0380821690813410613f4957836000526005855260096040600020019160ff835460c01c1615613f0d57613c248291614a54565b93613c2f3086614e8b565b613c393386614e8b565b8560005260068752604060002094600b8601805415613ed8575b600487019033600052818a5260ff6040600020541615613e45575b5050600a9060028701808a52613c89826040600020546147b2565b90336000528a5260406000205560058701613ca58282546147b2565b9055600687019283549085613cbc82828516614689565b166001600160401b031980931617855533600052600389018b5260406000209186613ceb845493828516614689565b1691161790553360005281895260406000209060088201805415613dad575b5060028201613d1a8282546147b2565b9055613d2b600483019182546147b2565b9055613d3a88600183016146a4565b42600982015501805463ffffffff613d538183166146d9565b169063ffffffff191617905554169154161115613d99575b507fbd7ef6c6281278f6c8ac4ae9ef2f205b52425813c288dd47c377cb6b59c5076e604051924284523393a3005b600c01805460ff1916600117905582613d6b565b82546001600160a01b03191633178355429055613e3f82613e37613dcf614aaa565b60028301908155613e37613de1614aaa565b60038501908155613e37613df3614aaa565b60048701908155613e37613e05614afa565b9360058901948555613e37613e18614afa565b9760068b019889556007613e2a614b4a565b9b019a8b55309054614e8b565b309054614e8b565b8a613d0a565b919093506001870193845492600160401b8410156119d057613e708488976001600a97018155614662565b81546001600160a01b0360039290921b91821b19163390911b179055613eaf613e97614aaa565b3360005260028b018d52806040600020553090614e8b565b613eb9815461467a565b90553360005289526040600020600160ff198254161790559089613c6e565b878755613f08613ee6614aaa565b60058901908155613e37613ef8614aaa565b9160078b01928355309054614e8b565b613c53565b60405162461bcd60e51b81526004810187905260146024820152734576616c756174696f6e206e6f7420726561647960601b6044820152606490fd5b60405162461bcd60e51b8152600481018690526014602482015273125b9cdd59999a58da595b9d081c185e5b595b9d60621b6044820152606490fd5b346102215760e036600319011261022157613f9e61446e565b60ff6044351660443503610221576001600160401b039060643582811681036102215763ffffffff60843516608435036102215763ffffffff60a4351660a43503610221578260c4351660c435036102215733600052600160205261400a60ff60406000205416614553565b600435600052600460205260406000209161402e60ff600e85015460101c16614594565b60ff600984015460081c1693600a851015610c875760096141c4946141ba9360ff979361405e60038a96146145d2565b60043560009081526005602052604090819020600881018054918701805460a43560601b63ffffffff60601b1660843590951b63ffffffff60401b166001600160c81b03199091168c871617179390931760c43560801b67ffffffffffffffff60801b1617600160c01b17909255604435871660c881901b65ffffffffffff60a01b1990921660a886901b63ffffffff60a81b161791909117600160a01b179091558385015497906003101580614203575b156141e257838501805461ff00191661040017905542600b8501555b42600d850155600e84015461ffff61414581831661460f565b169061ffff191617600e85015563ffffffff604051931683528560443516602084015216604082015263ffffffff6084351660608201527f8d20d8d53d143049b0397042a511c33a9635cd3c61ad642dbd77aa3e95e6d3c6608060043592a2015460081c169160405194859160081c166143e9565b60208301906143e9565b42604082015260008051602061517c833981519152606060043592a2005b61ff001988166109001784860155600e8401805462ff00001916905561412c565b508181161515614110565b34610221576020366003190112610221576001600160a01b0361422f614403565b1660005260096020526040600020600b810154610317600c8301549261030a600163ffffffff600d840154169201614500565b34610221576020366003190112610221576004356000526004602052610100604060002061ffff60018060a01b0360018301541691600981015490600a810154600b820154906142dc600e600c850154940154946040519788526142cf6020890160ff8360081c166143e9565b60ff6040890191166143f6565b6060860152608085015260a084015260ff8160101c16151560c08401521660e0820152f35b3461022157600036600319011261022157610140600b5463ffffffff6001600160401b0391600c5490604051938382168552838260201c166020860152838260401c166040860152808260601c1660608601528160a01c16608085015260e01c60a084015281811660c0840152818160201c1660e0840152818160401c1661010084015260601c16610120820152f35b3461022157602036600319011261022157608090600435600052600760205260ff6040600020600781015490600960088201549101549184526020840152818160401c161515604084015260481c1615156060820152f35b90600a821015610c875752565b906005821015610c875752565b600435906001600160a01b038216820361022157565b60a09063ffffffff6020939495608083019583528496858401521660408201526080606082015285518094520193019160005b82811061445a575050505090565b83518552938101939281019260010161444c565b6024359063ffffffff8216820361022157565b602435906001600160401b038216820361022157565b6040906003190112610221576004359060243590565b80548210156144c9576000526007602060002091020190600090565b634e487b7160e01b600052603260045260246000fd5b90601f801991011681019081106001600160401b038211176119d057604052565b90604051918281549182825260209260208301916000526020600020936000905b82821061453957505050614537925003836144df565b565b855484526001958601958895509381019390910190614521565b1561455a57565b60405162461bcd60e51b8152602060048201526012602482015271139bdd0818dc99591a5d08185b985b1e5cdd60721b6044820152606490fd5b1561459b57565b60405162461bcd60e51b815260206004820152600f60248201526e4c6f616e206e6f742061637469766560881b6044820152606490fd5b156145d957565b60405162461bcd60e51b815260206004820152600e60248201526d496e76616c69642073746174757360901b6044820152606490fd5b61ffff809116908114610c295760010190565b1561462957565b60405162461bcd60e51b8152602060048201526011602482015270131bd85b881b9bdd08185c1c1c9bdd9959607a1b6044820152606490fd5b80548210156144c95760005260206000200190600090565b6000198114610c295760010190565b9190916001600160401b0380809416911601918211610c2957565b8054600160401b8110156119d0576146c191600182018155614662565b819291549060031b91821b91600019901b1916179055565b63ffffffff809116908114610c295760010190565b156146f557565b60405162461bcd60e51b81526020600482015260096024820152682737ba1037bbb732b960b91b6044820152606490fd5b60043563ffffffff811681036102215790565b60243563ffffffff811681036102215790565b60443563ffffffff811681036102215790565b6064356001600160401b03811681036102215790565b6084356001600160401b03811681036102215790565b906201518063ffffffff80931602918216918203610c2957565b91908201809211610c2957565b906147c99180156147d6575b81156147cc57614f06565b90565b905061189a614aaa565b506147df614aaa565b6147be565b906147c99180156147ff575b81614f0657905061189a614afa565b50614808614afa565b6147f0565b906147c9918015614828575b816150b1579050611096614afa565b50614831614afa565b614819565b906147c9918015614857575b81615106579050614851614afa565b90615106565b50614860614afa565b614842565b906147c9918015614880575b81614f5b579050611a96614afa565b50614889614afa565b614871565b8015614941575b8115614931575b60018060a01b0360008051602061515c83398151915254169160405191630afe14ad60e31b835260048301526024820152602081606481600080968160448401525af19182156149255780926148f157505090565b9091506020823d60201161491d575b8161490d602093836144df565b8101031261491a57505190565b80fd5b3d9150614900565b604051903d90823e3d90fd5b905061493b614aaa565b9061489c565b5061494a614aaa565b614895565b6001600160401b039160209180156149f0575b60008051602061515c83398151915254604051635a53accb60e01b81526004810192909252919093166024840152600160f81b6044840152829060649082906000906001600160a01b03165af19081156118e8576000916149c1575090565b90506020813d6020116149e8575b816149dc602093836144df565b81010312610221575190565b3d91506149cf565b5060646149fb614aaa565b9050614962565b906147c9918015614a1d575b81615106579050614851614aaa565b50614a26614aaa565b614a0e565b906147c9918015614a46575b81614f0657905061189a614e3b565b50614a4f614e3b565b614a37565b60008051602061515c83398151915254604051639cd07acb60e01b8152600481019290925260056024830152602090829060449082906000906001600160a01b03165af19081156118e8576000916149c1575090565b60018060a01b0360008051602061515c8339815191525416604051639cd07acb60e01b815260208160448160008096816004840152600560248401525af19182156149255780926148f157505090565b60018060a01b0360008051602061515c8339815191525416604051639cd07acb60e01b815260208160448160008096816004840152600460248401525af19182156149255780926148f157505090565b60018060a01b0360008051602061515c8339815191525416604051639cd07acb60e01b815260208160448160008096816004840152600360248401525af19182156149255780926148f157505090565b6020600091604460018060a01b0360008051602061515c8339815191525416916040519485938492639cd07acb60e01b84526004840152600460248401525af19081156118e8576000916149c1575090565b60008051602061515c83398151915254604051639cd07acb60e01b8152600481019290925260026024830152602090829060449082906000906001600160a01b03165af19081156118e8576000916149c1575090565b60008051602061515c83398151915254604051639cd07acb60e01b8152603260048201526002602482015290602090829060449082906000906001600160a01b03165af19081156118e8576000916149c1575090565b6000602060018060a01b0360008051602061515c8339815191525416604460405180948193639cd07acb60e01b835260016004840152600460248401525af19081156118e8576000916149c1575090565b60018060a01b0360008051602061515c8339815191525416604051639cd07acb60e01b815260208160448160008096816004840152600260248401525af19182156149255780926148f157505090565b60008051602061515c83398151915254604051639cd07acb60e01b8152606460048201526002602482015290602090829060449082906000906001600160a01b03165af19081156118e8576000916149c1575090565b60008051602061515c83398151915254604051639cd07acb60e01b8152605a60048201526002602482015290602090829060449082906000906001600160a01b03165af19081156118e8576000916149c1575090565b60008051602061515c83398151915254604051639cd07acb60e01b8152601460048201526002602482015290602090829060449082906000906001600160a01b03165af19081156118e8576000916149c1575090565b60018060a01b0360008051602061515c8339815191525416604051639cd07acb60e01b815260208160448160008096816004840152600660248401525af19182156149255780926148f157505090565b7f9e7b61f58c47dc699ac88507c4f5bb9f121c03808c5676a8078fe583e4649700546001600160a01b0392908316803b1561022157600092836044926040519687958694635ca4b5b160e11b865260048601521660248401525af180156118e857614ef35750565b6001600160401b0381116119d057604052565b60018060a01b0360008051602061515c8339815191525416916040519163022f65e760e31b835260048301526024820152602081606481600080968160448401525af19182156149255780926148f157505090565b60018060a01b0360008051602061515c83398151915254169160405191631391547f60e01b835260048301526024820152602081606481600080968160448401525af19182156149255780926148f157505090565b906064602092600060018060a01b0360008051602061515c83398151915254166040519687958694637702dcff60e01b86526004860152602485015260448401525af19081156118e8576000916149c1575090565b60008051602061515c833981519152546040516307227b9160e21b8152600481019290925260056024830152602090829060449082906000906001600160a01b03165af19081156118e8576000916149c1575090565b60008051602061515c833981519152546040516307227b9160e21b8152600481019290925260066024830152602090829060449082906000906001600160a01b03165af19081156118e8576000916149c1575090565b60018060a01b0360008051602061515c833981519152541691604051916385362ee760e01b835260048301526024820152602081606481600080968160448401525af19182156149255780926148f157505090565b60018060a01b0360008051602061515c833981519152541691604051916303056db360e31b835260048301526024820152602081606481600080968160448401525af19182156149255780926148f15750509056fe9e7b61f58c47dc699ac88507c4f5bb9f121c03808c5676a8078fe583e4649701ce8c3348968dc5cd4c3595d1c9fadd4ead4b892d7eb93d756f8d57799fe167a7a2646970667358221220e61a9400cefa12835ff0dde01ca1c3112c8d3beb63ff7692dfb9f898436f2f0064736f6c634300081800339e7b61f58c47dc699ac88507c4f5bb9f121c03808c5676a8078fe583e4649701",
  "linkReferences": {},
  "deployedLinkReferences": {}
}